{
  "abi": [
    {
      "inputs": [
        {
          "internalType": "contract IERC20",
          "name": "asset",
          "type": "address"
        }
      ],
      "stateMutability": "nonpayable",
      "type": "constructor"
    },
    {
      "anonymous": false,
      "inputs": [
        {
          "indexed": true,
          "internalType": "address",
          "name": "owner",
          "type": "address"
        },
        {
          "indexed": true,
          "internalType": "address",
          "name": "spender",
          "type": "address"
        },
        {
          "indexed": false,
          "internalType": "uint256",
          "name": "value",
          "type": "uint256"
        }
      ],
      "name": "Approval",
      "type": "event"
    },
    {
      "anonymous": false,
      "inputs": [
        {
          "indexed": true,
          "internalType": "address",
          "name": "sender",
          "type": "address"
        },
        {
          "indexed": true,
          "internalType": "address",
          "name": "owner",
          "type": "address"
        },
        {
          "indexed": false,
          "internalType": "uint256",
          "name": "assets",
          "type": "uint256"
        },
        {
          "indexed": false,
          "internalType": "uint256",
          "name": "shares",
          "type": "uint256"
        }
      ],
      "name": "Deposit",
      "type": "event"
    },
    {
      "anonymous": false,
      "inputs": [
        {
          "indexed": true,
          "internalType": "address",
          "name": "from",
          "type": "address"
        },
        {
          "indexed": true,
          "internalType": "address",
          "name": "to",
          "type": "address"
        },
        {
          "indexed": false,
          "internalType": "uint256",
          "name": "value",
          "type": "uint256"
        }
      ],
      "name": "Transfer",
      "type": "event"
    },
    {
      "anonymous": false,
      "inputs": [
        {
          "indexed": true,
          "internalType": "address",
          "name": "sender",
          "type": "address"
        },
        {
          "indexed": true,
          "internalType": "address",
          "name": "receiver",
          "type": "address"
        },
        {
          "indexed": true,
          "internalType": "address",
          "name": "owner",
          "type": "address"
        },
        {
          "indexed": false,
          "internalType": "uint256",
          "name": "assets",
          "type": "uint256"
        },
        {
          "indexed": false,
          "internalType": "uint256",
          "name": "shares",
          "type": "uint256"
        }
      ],
      "name": "Withdraw",
      "type": "event"
    },
    {
      "inputs": [
        {
          "internalType": "address",
          "name": "owner",
          "type": "address"
        },
        {
          "internalType": "address",
          "name": "spender",
          "type": "address"
        }
      ],
      "name": "allowance",
      "outputs": [
        {
          "internalType": "uint256",
          "name": "",
          "type": "uint256"
        }
      ],
      "stateMutability": "view",
      "type": "function"
    },
    {
      "inputs": [
        {
          "internalType": "address",
          "name": "spender",
          "type": "address"
        },
        {
          "internalType": "uint256",
          "name": "amount",
          "type": "uint256"
        }
      ],
      "name": "approve",
      "outputs": [
        {
          "internalType": "bool",
          "name": "",
          "type": "bool"
        }
      ],
      "stateMutability": "nonpayable",
      "type": "function"
    },
    {
      "inputs": [],
      "name": "asset",
      "outputs": [
        {
          "internalType": "address",
          "name": "",
          "type": "address"
        }
      ],
      "stateMutability": "view",
      "type": "function"
    },
    {
      "inputs": [
        {
          "internalType": "address",
          "name": "account",
          "type": "address"
        }
      ],
      "name": "balanceOf",
      "outputs": [
        {
          "internalType": "uint256",
          "name": "",
          "type": "uint256"
        }
      ],
      "stateMutability": "view",
      "type": "function"
    },
    {
      "inputs": [
        {
          "internalType": "uint256",
          "name": "shares",
          "type": "uint256"
        }
      ],
      "name": "convertToAssets",
      "outputs": [
        {
          "internalType": "uint256",
          "name": "",
          "type": "uint256"
        }
      ],
      "stateMutability": "view",
      "type": "function"
    },
    {
      "inputs": [
        {
          "internalType": "uint256",
          "name": "assets",
          "type": "uint256"
        }
      ],
      "name": "convertToShares",
      "outputs": [
        {
          "internalType": "uint256",
          "name": "",
          "type": "uint256"
        }
      ],
      "stateMutability": "view",
      "type": "function"
    },
    {
      "inputs": [],
      "name": "decimals",
      "outputs": [
        {
          "internalType": "uint8",
          "name": "",
          "type": "uint8"
        }
      ],
      "stateMutability": "view",
      "type": "function"
    },
    {
      "inputs": [
        {
          "internalType": "address",
          "name": "spender",
          "type": "address"
        },
        {
          "internalType": "uint256",
          "name": "subtractedValue",
          "type": "uint256"
        }
      ],
      "name": "decreaseAllowance",
      "outputs": [
        {
          "internalType": "bool",
          "name": "",
          "type": "bool"
        }
      ],
      "stateMutability": "nonpayable",
      "type": "function"
    },
    {
      "inputs": [
        {
          "internalType": "uint256",
          "name": "assets",
          "type": "uint256"
        },
        {
          "internalType": "address",
          "name": "receiver",
          "type": "address"
        }
      ],
      "name": "deposit",
      "outputs": [
        {
          "internalType": "uint256",
          "name": "",
          "type": "uint256"
        }
      ],
      "stateMutability": "nonpayable",
      "type": "function"
    },
    {
      "inputs": [
        {
          "internalType": "address",
          "name": "spender",
          "type": "address"
        },
        {
          "internalType": "uint256",
          "name": "addedValue",
          "type": "uint256"
        }
      ],
      "name": "increaseAllowance",
      "outputs": [
        {
          "internalType": "bool",
          "name": "",
          "type": "bool"
        }
      ],
      "stateMutability": "nonpayable",
      "type": "function"
    },
    {
      "inputs": [
        {
          "internalType": "address",
          "name": "",
          "type": "address"
        }
      ],
      "name": "maxDeposit",
      "outputs": [
        {
          "internalType": "uint256",
          "name": "",
          "type": "uint256"
        }
      ],
      "stateMutability": "view",
      "type": "function"
    },
    {
      "inputs": [
        {
          "internalType": "address",
          "name": "",
          "type": "address"
        }
      ],
      "name": "maxMint",
      "outputs": [
        {
          "internalType": "uint256",
          "name": "",
          "type": "uint256"
        }
      ],
      "stateMutability": "view",
      "type": "function"
    },
    {
      "inputs": [
        {
          "internalType": "address",
          "name": "owner",
          "type": "address"
        }
      ],
      "name": "maxRedeem",
      "outputs": [
        {
          "internalType": "uint256",
          "name": "",
          "type": "uint256"
        }
      ],
      "stateMutability": "view",
      "type": "function"
    },
    {
      "inputs": [
        {
          "internalType": "address",
          "name": "owner",
          "type": "address"
        }
      ],
      "name": "maxWithdraw",
      "outputs": [
        {
          "internalType": "uint256",
          "name": "",
          "type": "uint256"
        }
      ],
      "stateMutability": "view",
      "type": "function"
    },
    {
      "inputs": [
        {
          "internalType": "uint256",
          "name": "shares",
          "type": "uint256"
        },
        {
          "internalType": "address",
          "name": "receiver",
          "type": "address"
        }
      ],
      "name": "mint",
      "outputs": [
        {
          "internalType": "uint256",
          "name": "",
          "type": "uint256"
        }
      ],
      "stateMutability": "nonpayable",
      "type": "function"
    },
    {
      "inputs": [],
      "name": "name",
      "outputs": [
        {
          "internalType": "string",
          "name": "",
          "type": "string"
        }
      ],
      "stateMutability": "view",
      "type": "function"
    },
    {
      "inputs": [
        {
          "internalType": "uint256",
          "name": "assets",
          "type": "uint256"
        }
      ],
      "name": "previewDeposit",
      "outputs": [
        {
          "internalType": "uint256",
          "name": "",
          "type": "uint256"
        }
      ],
      "stateMutability": "view",
      "type": "function"
    },
    {
      "inputs": [
        {
          "internalType": "uint256",
          "name": "shares",
          "type": "uint256"
        }
      ],
      "name": "previewMint",
      "outputs": [
        {
          "internalType": "uint256",
          "name": "",
          "type": "uint256"
        }
      ],
      "stateMutability": "view",
      "type": "function"
    },
    {
      "inputs": [
        {
          "internalType": "uint256",
          "name": "shares",
          "type": "uint256"
        }
      ],
      "name": "previewRedeem",
      "outputs": [
        {
          "internalType": "uint256",
          "name": "",
          "type": "uint256"
        }
      ],
      "stateMutability": "view",
      "type": "function"
    },
    {
      "inputs": [
        {
          "internalType": "uint256",
          "name": "assets",
          "type": "uint256"
        }
      ],
      "name": "previewWithdraw",
      "outputs": [
        {
          "internalType": "uint256",
          "name": "",
          "type": "uint256"
        }
      ],
      "stateMutability": "view",
      "type": "function"
    },
    {
      "inputs": [
        {
          "internalType": "uint256",
          "name": "shares",
          "type": "uint256"
        },
        {
          "internalType": "address",
          "name": "receiver",
          "type": "address"
        },
        {
          "internalType": "address",
          "name": "owner",
          "type": "address"
        }
      ],
      "name": "redeem",
      "outputs": [
        {
          "internalType": "uint256",
          "name": "",
          "type": "uint256"
        }
      ],
      "stateMutability": "nonpayable",
      "type": "function"
    },
    {
      "inputs": [],
      "name": "symbol",
      "outputs": [
        {
          "internalType": "string",
          "name": "",
          "type": "string"
        }
      ],
      "stateMutability": "view",
      "type": "function"
    },
    {
      "inputs": [],
      "name": "totalAssets",
      "outputs": [
        {
          "internalType": "uint256",
          "name": "",
          "type": "uint256"
        }
      ],
      "stateMutability": "view",
      "type": "function"
    },
    {
      "inputs": [],
      "name": "totalSupply",
      "outputs": [
        {
          "internalType": "uint256",
          "name": "",
          "type": "uint256"
        }
      ],
      "stateMutability": "view",
      "type": "function"
    },
    {
      "inputs": [
        {
          "internalType": "address",
          "name": "to",
          "type": "address"
        },
        {
          "internalType": "uint256",
          "name": "amount",
          "type": "uint256"
        }
      ],
      "name": "transfer",
      "outputs": [
        {
          "internalType": "bool",
          "name": "",
          "type": "bool"
        }
      ],
      "stateMutability": "nonpayable",
      "type": "function"
    },
    {
      "inputs": [
        {
          "internalType": "address",
          "name": "from",
          "type": "address"
        },
        {
          "internalType": "address",
          "name": "to",
          "type": "address"
        },
        {
          "internalType": "uint256",
          "name": "amount",
          "type": "uint256"
        }
      ],
      "name": "transferFrom",
      "outputs": [
        {
          "internalType": "bool",
          "name": "",
          "type": "bool"
        }
      ],
      "stateMutability": "nonpayable",
      "type": "function"
    },
    {
      "inputs": [
        {
          "internalType": "uint256",
          "name": "assets",
          "type": "uint256"
        },
        {
          "internalType": "address",
          "name": "receiver",
          "type": "address"
        },
        {
          "internalType": "address",
          "name": "owner",
          "type": "address"
        }
      ],
      "name": "withdraw",
      "outputs": [
        {
          "internalType": "uint256",
          "name": "",
          "type": "uint256"
        }
      ],
      "stateMutability": "nonpayable",
      "type": "function"
    }
  ],
  "bytecode": {
    "object": "0x60c06040523480156200001157600080fd5b5060405162001a6038038062001a608339810160408190526200003491620001b8565b8060405180604001604052806005815260200164536861726560d81b815250604051806040016040528060018152602001605360f81b81525081600390816200007e91906200028f565b5060046200008d82826200028f565b505050600080620000a483620000d360201b60201c565b9150915081620000b6576012620000b8565b805b60ff1660a05250506001600160a01b031660805250620003a6565b60408051600481526024810182526020810180516001600160e01b031663313ce56760e01b17905290516000918291829182916001600160a01b038716916200011c916200035b565b600060405180830381855afa9150503d806000811462000159576040519150601f19603f3d011682016040523d82523d6000602084013e6200015e565b606091505b50915091508180156200017357506020815110155b15620001ab576000818060200190518101906200019191906200038c565b905060ff8111620001a9576001969095509350505050565b505b5060009485945092505050565b600060208284031215620001cb57600080fd5b81516001600160a01b0381168114620001e357600080fd5b9392505050565b634e487b7160e01b600052604160045260246000fd5b600181811c908216806200021557607f821691505b6020821081036200023657634e487b7160e01b600052602260045260246000fd5b50919050565b601f8211156200028a57600081815260208120601f850160051c81016020861015620002655750805b601f850160051c820191505b81811015620002865782815560010162000271565b5050505b505050565b81516001600160401b03811115620002ab57620002ab620001ea565b620002c381620002bc845462000200565b846200023c565b602080601f831160018114620002fb5760008415620002e25750858301515b600019600386901b1c1916600185901b17855562000286565b600085815260208120601f198616915b828110156200032c578886015182559484019460019091019084016200030b565b50858210156200034b5787850151600019600388901b60f8161c191681555b5050505050600190811b01905550565b6000825160005b818110156200037e576020818601810151858301520162000362565b506000920191825250919050565b6000602082840312156200039f57600080fd5b5051919050565b60805160a05161167f620003e16000396000610546015260008181610269015281816103d501528181610b9b0152610c5b015261167f6000f3fe608060405234801561001057600080fd5b50600436106101a95760003560e01c806370a08231116100f9578063ba08765211610097578063ce96cb7711610071578063ce96cb7714610384578063d905777e14610397578063dd62ed3e146103aa578063ef8b30f71461037157600080fd5b8063ba0876521461035e578063c63d75b6146102a6578063c6e6f5921461037157600080fd5b8063a457c2d7116100d3578063a457c2d714610312578063a9059cbb14610325578063b3d7f6b914610338578063b460af941461034b57600080fd5b806370a08231146102ce57806394bf804d146102f757806395d89b411461030a57600080fd5b806323b872dd1161016657806339509351116101405780633950935114610293578063402d267d146102a65780634cdad506146101de5780636e553f65146102bb57600080fd5b806323b872dd1461022f578063313ce5671461024257806338d52e0f1461025c57600080fd5b806301e1d114146101ae57806306fdde03146101c957806307a2d13a146101de578063095ea7b3146101f15780630a28a4771461021457806318160ddd14610227575b600080fd5b6101b66103bd565b6040519081526020015b60405180910390f35b6101d161044d565b6040516101c091906112dc565b6101b66101ec36600461130f565b6104df565b6102046101ff366004611344565b6104f2565b60405190151581526020016101c0565b6101b661022236600461130f565b61050a565b6002546101b6565b61020461023d36600461136e565b610517565b61024a61053d565b60405160ff90911681526020016101c0565b6040516001600160a01b037f00000000000000000000000000000000000000000000000000000000000000001681526020016101c0565b6102046102a1366004611344565b61056a565b6101b66102b43660046113aa565b5060001990565b6101b66102c93660046113c5565b61058c565b6101b66102dc3660046113aa565b6001600160a01b031660009081526020819052604090205490565b6101b66103053660046113c5565b6105b5565b6101d16105cf565b610204610320366004611344565b6105de565b610204610333366004611344565b610664565b6101b661034636600461130f565b610672565b6101b66103593660046113f1565b61067f565b6101b661036c3660046113f1565b6106fb565b6101b661037f36600461130f565b61076f565b6101b66103923660046113aa565b61077c565b6101b66103a53660046113aa565b6107a0565b6101b66103b836600461142d565b6107be565b6040516370a0823160e01b81523060048201526000907f00000000000000000000000000000000000000000000000000000000000000006001600160a01b0316906370a0823190602401602060405180830381865afa158015610424573d6000803e3d6000fd5b505050506040513d601f19601f820116820180604052508101906104489190611457565b905090565b60606003805461045c90611470565b80601f016020809104026020016040519081016040528092919081815260200182805461048890611470565b80156104d55780601f106104aa576101008083540402835291602001916104d5565b820191906000526020600020905b8154815290600101906020018083116104b857829003601f168201915b5050505050905090565b60006104ec8260006107e9565b92915050565b600033610500818585610823565b5060019392505050565b60006104ec826001610947565b600033610525858285610978565b6105308585856109f2565b60019150505b9392505050565b600061044860127f00000000000000000000000000000000000000000000000000000000000000006114c0565b60003361050081858561057d83836107be565b61058791906114d9565b610823565b600061059c565b60405180910390fd5b60006105a78461076f565b905061053633848684610b96565b6000806105c184610672565b905061053633848387610b96565b60606004805461045c90611470565b600033816105ec82866107be565b90508381101561064c5760405162461bcd60e51b815260206004820152602560248201527f45524332303a2064656372656173656420616c6c6f77616e63652062656c6f77604482015264207a65726f60d81b6064820152608401610593565b6106598286868403610823565b506001949350505050565b6000336105008185856109f2565b60006104ec8260016107e9565b600061068a8261077c565b8411156106d95760405162461bcd60e51b815260206004820152601f60248201527f455243343632363a207769746864726177206d6f7265207468616e206d6178006044820152606401610593565b60006106e48561050a565b90506106f33385858885610c28565b949350505050565b6000610706826107a0565b8411156107555760405162461bcd60e51b815260206004820152601d60248201527f455243343632363a2072656465656d206d6f7265207468616e206d61780000006044820152606401610593565b6000610760856104df565b90506106f33385858489610c28565b60006104ec826000610947565b6001600160a01b0381166000908152602081905260408120546104ec9060006107e9565b6001600160a01b0381166000908152602081905260408120546104ec565b6001600160a01b03918216600090815260016020908152604080832093909416825291909152205490565b60006105366107f66103bd565b6108019060016114d9565b61080d6012600a6115d0565b60025461081a91906114d9565b85919085610ce8565b6001600160a01b0383166108855760405162461bcd60e51b8152602060048201526024808201527f45524332303a20617070726f76652066726f6d20746865207a65726f206164646044820152637265737360e01b6064820152608401610593565b6001600160a01b0382166108e65760405162461bcd60e51b815260206004820152602260248201527f45524332303a20617070726f766520746f20746865207a65726f206164647265604482015261737360f01b6064820152608401610593565b6001600160a01b0383811660008181526001602090815260408083209487168084529482529182902085905590518481527f8c5be1e5ebec7d5bd14f71427d1e84f3dd0314c0f7b2291e5b200ac8c7c3b925910160405180910390a3505050565b60006105366109586012600a6115d0565b60025461096591906114d9565b61096d6103bd565b61081a9060016114d9565b600061098484846107be565b905060001981146109ec57818110156109df5760405162461bcd60e51b815260206004820152601d60248201527f45524332303a20696e73756666696369656e7420616c6c6f77616e63650000006044820152606401610593565b6109ec8484848403610823565b50505050565b6001600160a01b038316610a565760405162461bcd60e51b815260206004820152602560248201527f45524332303a207472616e736665722066726f6d20746865207a65726f206164604482015264647265737360d81b6064820152608401610593565b6001600160a01b038216610ab85760405162461bcd60e51b815260206004820152602360248201527f45524332303a207472616e7366657220746f20746865207a65726f206164647260448201526265737360e81b6064820152608401610593565b6001600160a01b03831660009081526020819052604090205481811015610b305760405162461bcd60e51b815260206004820152602660248201527f45524332303a207472616e7366657220616d6f756e7420657863656564732062604482015265616c616e636560d01b6064820152608401610593565b6001600160a01b03848116600081815260208181526040808320878703905593871680835291849020805487019055925185815290927fddf252ad1be2c89b69c2b068fc378daa952ba7f163c4a11628f55a4df523b3ef910160405180910390a36109ec565b610bc27f0000000000000000000000000000000000000000000000000000000000000000853085610d4a565b610bcc8382610db5565b826001600160a01b0316846001600160a01b03167fdcbc1c05240f31ff3ad067ef1ee35ce4997762752e3a095284754544f4c709d78484604051610c1a929190918252602082015260400190565b60405180910390a350505050565b826001600160a01b0316856001600160a01b031614610c4c57610c4c838683610978565b610c568382610e74565b610c817f00000000000000000000000000000000000000000000000000000000000000008584610fa6565b826001600160a01b0316846001600160a01b0316866001600160a01b03167ffbde797d201c681b91056529119e0b02407c7bb96a4a2c75c01fc9667232c8db8585604051610cd9929190918252602082015260400190565b60405180910390a45050505050565b600080610cf6868686610fd6565b90506001836002811115610d0c57610d0c6115df565b148015610d29575060008480610d2457610d246115f5565b868809115b15610d3c57610d396001826114d9565b90505b95945050505050565b505050565b6040516001600160a01b03808516602483015283166044820152606481018290526109ec9085906323b872dd60e01b906084015b60408051601f198184030181529190526020810180516001600160e01b03166001600160e01b0319909316929092179091526110c0565b6001600160a01b038216610e0b5760405162461bcd60e51b815260206004820152601f60248201527f45524332303a206d696e7420746f20746865207a65726f2061646472657373006044820152606401610593565b8060026000828254610e1d91906114d9565b90915550506001600160a01b038216600081815260208181526040808320805486019055518481527fddf252ad1be2c89b69c2b068fc378daa952ba7f163c4a11628f55a4df523b3ef910160405180910390a35050565b6001600160a01b038216610ed45760405162461bcd60e51b815260206004820152602160248201527f45524332303a206275726e2066726f6d20746865207a65726f206164647265736044820152607360f81b6064820152608401610593565b6001600160a01b03821660009081526020819052604090205481811015610f485760405162461bcd60e51b815260206004820152602260248201527f45524332303a206275726e20616d6f756e7420657863656564732062616c616e604482015261636560f01b6064820152608401610593565b6001600160a01b0383166000818152602081815260408083208686039055600280548790039055518581529192917fddf252ad1be2c89b69c2b068fc378daa952ba7f163c4a11628f55a4df523b3ef910160405180910390a3505050565b6040516001600160a01b038316602482015260448101829052610d4590849063a9059cbb60e01b90606401610d7e565b600080806000198587098587029250828110838203039150508060000361101057838281611006576110066115f5565b0492505050610536565b8084116110575760405162461bcd60e51b81526020600482015260156024820152744d6174683a206d756c446976206f766572666c6f7760581b6044820152606401610593565b60008486880960026001871981018816978890046003810283188082028403028082028403028082028403028082028403028082028403029081029092039091026000889003889004909101858311909403939093029303949094049190911702949350505050565b6000611115826040518060400160405280602081526020017f5361666545524332303a206c6f772d6c6576656c2063616c6c206661696c6564815250856001600160a01b03166111959092919063ffffffff16565b9050805160001480611136575080806020019051810190611136919061160b565b610d455760405162461bcd60e51b815260206004820152602a60248201527f5361666545524332303a204552433230206f7065726174696f6e20646964206e6044820152691bdd081cdd58d8d9595960b21b6064820152608401610593565b60606106f3848460008585600080866001600160a01b031685876040516111bc919061162d565b60006040518083038185875af1925050503d80600081146111f9576040519150601f19603f3d011682016040523d82523d6000602084013e6111fe565b606091505b509150915061120f8783838761121a565b979650505050505050565b60608315611289578251600003611282576001600160a01b0385163b6112825760405162461bcd60e51b815260206004820152601d60248201527f416464726573733a2063616c6c20746f206e6f6e2d636f6e74726163740000006044820152606401610593565b50816106f3565b6106f3838381511561129e5781518083602001fd5b8060405162461bcd60e51b815260040161059391906112dc565b60005b838110156112d35781810151838201526020016112bb565b50506000910152565b60208152600082518060208401526112fb8160408501602087016112b8565b601f01601f19169190910160400192915050565b60006020828403121561132157600080fd5b5035919050565b80356001600160a01b038116811461133f57600080fd5b919050565b6000806040838503121561135757600080fd5b61136083611328565b946020939093013593505050565b60008060006060848603121561138357600080fd5b61138c84611328565b925061139a60208501611328565b9150604084013590509250925092565b6000602082840312156113bc57600080fd5b61053682611328565b600080604083850312156113d857600080fd5b823591506113e860208401611328565b90509250929050565b60008060006060848603121561140657600080fd5b8335925061141660208501611328565b915061142460408501611328565b90509250925092565b6000806040838503121561144057600080fd5b61144983611328565b91506113e860208401611328565b60006020828403121561146957600080fd5b5051919050565b600181811c9082168061148457607f821691505b6020821081036114a457634e487b7160e01b600052602260045260246000fd5b50919050565b634e487b7160e01b600052601160045260246000fd5b60ff81811683821601908111156104ec576104ec6114aa565b808201808211156104ec576104ec6114aa565b600181815b8085111561152757816000190482111561150d5761150d6114aa565b8085161561151a57918102915b93841c93908002906114f1565b509250929050565b60008261153e575060016104ec565b8161154b575060006104ec565b8160018114611561576002811461156b57611587565b60019150506104ec565b60ff84111561157c5761157c6114aa565b50506001821b6104ec565b5060208310610133831016604e8410600b84101617156115aa575081810a6104ec565b6115b483836114ec565b80600019048211156115c8576115c86114aa565b029392505050565b600061053660ff84168361152f565b634e487b7160e01b600052602160045260246000fd5b634e487b7160e01b600052601260045260246000fd5b60006020828403121561161d57600080fd5b8151801515811461053657600080fd5b6000825161163f8184602087016112b8565b919091019291505056fea26469706673582212209d72cf5966ade64d83d573fc770bdf5b21860bb49a54442eabc0b6ed01c126fb64736f6c63430008110033",
    "linkReferences": {}
  },
  "methodIdentifiers": {
    "allowance(address,address)": "dd62ed3e",
    "approve(address,uint256)": "095ea7b3",
    "asset()": "38d52e0f",
    "balanceOf(address)": "70a08231",
    "convertToAssets(uint256)": "07a2d13a",
    "convertToShares(uint256)": "c6e6f592",
    "decimals()": "313ce567",
    "decreaseAllowance(address,uint256)": "a457c2d7",
    "deposit(uint256,address)": "6e553f65",
    "increaseAllowance(address,uint256)": "39509351",
    "maxDeposit(address)": "402d267d",
    "maxMint(address)": "c63d75b6",
    "maxRedeem(address)": "d905777e",
    "maxWithdraw(address)": "ce96cb77",
    "mint(uint256,address)": "94bf804d",
    "name()": "06fdde03",
    "previewDeposit(uint256)": "ef8b30f7",
    "previewMint(uint256)": "b3d7f6b9",
    "previewRedeem(uint256)": "4cdad506",
    "previewWithdraw(uint256)": "0a28a477",
    "redeem(uint256,address,address)": "ba087652",
    "symbol()": "95d89b41",
    "totalAssets()": "01e1d114",
    "totalSupply()": "18160ddd",
    "transfer(address,uint256)": "a9059cbb",
    "transferFrom(address,address,uint256)": "23b872dd",
    "withdraw(uint256,address,address)": "b460af94"
  },
  "id": 29
}